:4000000000100020110000003D0300003D03000010B500F09BF9C04670B50F4C23688022D20213432360182000F004FB22680B4B134023600A4A0B4B1A60063A0A4B1A6046
:40004000002525600949092000F0C0FA092000F0B1FA074B1D6070BD00010B40FFFFFBFF0600008004010B4008010B40450800000C020B4010B572B60122294B1A700024AB
:400080000FE028486200131959000B00411889881A5AC31858880004104300F023F90134E4B2012CEDD91F490C311F480C3000F0FFF81E4A1E4B1A6099231B041D4A136006
:4000C0001D4A13601D4A1360802252021C4B1A600D221C4B1A6001321B4B1A601B490B782E32934314221343DBB20B70184A117816230B43DBB213700123164A13601649C9
:40010000164A1160164A1360D8210901154A1160154A1360FFF780FF00F00AF910BDC0461C700F408C1800000C1A000006EE00000C00014010500F4020500F4030500F4018
:4001400038500F402000004000800F4001700F4000700F4008010440B66D1B000802044000030440080304401803044010B5064C2378002B07D1054B002B02D0044800E0FE
:4001800000BF0123237010BD480100200000000058180000084B10B5002B03D00749084800E000BF07480368002B00D110BD064B002BFBD09847F9E7000000004C010020D8
:4001C00058180000C00000200000000070B5104C104B2268985C7F3801F0BAF9616800F0FBFE0D4900F082FD00F068FD00F044F923685D1C2560094B1968606800F0ECFE01
:400200006060142D02D10022014B1A6070BDC046640100205C1800000000FE42C400002010B5FE229205064B5A600921012000F04DFC044800F0FAFB00F0EEFC10BDC046C9
:40024000640100207018000010B50921012000F03DFC044800F0EAFB0022034B5A6000F08FFC10BD781800006401002010B562B600F060F900F0F0F800F0F2FB0321002071
:4002800000F024FC064800F0D1FB064800F060FC054800F081F9054800F0F0FCFEE7C0468018000021020000CD01000049020000F0B50025002711E0BB00C658F3B2FF226A
:4002C000964308E06A008A181478A419527822700135013BDBB2002BF4D10137092FEBD9F0BDC04610B50A00002101F0ADFA10BD0C4B1B68002803D080221206134301E09B
:400300005B005B08074A1360074B1B68002803D080229204134301E0044A1340024A13607047C04680031A4008010B40FFFFFFFD10B50120FFF7DCFF10BDC04610B501F074
:4003400057FA03680C2B00D1FEE7FEE770B50F4E0F4D13E029686B68AC68002202E001C901C30432A242FAD1E868002202E0002102C304328242FAD11035013E002EE9D1C4
:4003800001F03CFAFFF772FFFEE7C04601000000D81A000010B500230AE0032B03D89A000949505800E009489900094A885001332F2BF2D9FFF75EFE8022D20511680123AC
:4003C0000B43136010BDC046000000003D0300000000002010B500F069FC0F4C23680F22934319000D4B1B7813400B4323600C4A136813600B4B1C680B4921401960116815
:400400008F24E400214311601A68802149020A431A6000F04FFC10BD04FF084061F1FF0F0800084004000840FFFFFEFF10B500F03DFC074A1368C02189000B431360054A9D
:400440001368802109060B43136000F033FC10BD080008400400084010B5064B1B68002B04D1FFF7B7FF0122024B1A60FFF7DEFF10BDC0467001002010B5040000F016FCD7
:40048000044A1368FF218B431C43146000F012FC10BDC04608000840034A117880235B420B43DBB21370704771000F40014B18707047C04681000F40014B1878C0B2704740
:4004C00061000F40014B18807047C04640100F40014B188880B2704780100F40014B18807047C04600100F4010B501E0FFF7F0FFFFF7E2FF0307F9D410BDC04610B50B4C30
:400500002000FFF7DFFF2000FFF7E8FF00F0CEFB074A117810230B43DBB2137000F0CAFBFFF7E2FF0020FFF7C1FF10BDB70B000091000F4010B5064B1B78002B04D1FFF736
:40054000DDFF0122024B1A70FFF7A6FF10BDC04674010020014B18647047C0460000002010B5040000F0A2FB044A1368C0218B43A4011C43146000F09DFB10BD00E400E09E
:400580000122014B1A60704700E100E00122014B1A60704780E100E010B50400FFF7F6FF2000FFF7D7FF0320FFF7DAFFFFF7E8FF10BDC0461F2318401E3B8340014A136043
:4005C0007047C04600E100E001BE704770B504000D001F2802D90020FFF7F6FF1034A40080239B059C4664442068256070BDC04610B5040006E0084B586800F04DFB074B63
:400600009C46644480231B029C42F4D8024B9868604300F041FB10BDC80000200080FFFF10B5034B1B7B584300F036FB10BDC046C8000020F0B557464E46C0B483B00400D6
:4006400000F034FB0190E71E2D2F74D83F4B1B78DBB29C4208D83E4B1B78DBB29A463D4B1B78DBB2994631E03B4B1B78DBB29C4208D83A4B1B78DBB29A46394B1B78DBB207
:40068000994623E0374B1B78DBB29C4208D8364B1B78DBB29A46354B1B78DBB2994615E0334B1B78DBB29C4208D8324B1B78DBB29A46314B1B78DBB2994607E02F4B1B78BB
:4006C000DBB29A462E4B1B78DBB299462D4BDE5D2F2E09D92A2C07D919222B4B1A60052000F0DAFA192503E0274B1D683F231D40B54206D9234BDA5D234B1A60052000F08A
:40070000CBFA1F4B9C4664442378DBB21F4A13601F4B52461A601F4B4A461A600520FFF77FFFB5420AD2174BDA5D174B1A60052000F0B2FA02E00020FFF746FF019800F0A4
:40074000B9FA03B00CBC91469A46F0BDC0F1FF0FC1F1FF0FC2F1FF0FC3F1FF0FC4F1FF0FC5F1FF0FC6F1FF0FC7F1FF0FC8F1FF0FC9F1FF0FCAF1FF0FCBF1FF0FCCF1FF0FE6
:40078000CDF1FF0F401A00002CFF0B4028FF0B401CFF0B4020FF0B40034B1868C0231B02184000D00120704700010B4010B500F07DFA044A1368C02109020B43136000F0AF
:4007C00079FA10BD00010B4010B500F06FFA08490A68084B1A408024E40122430A600A6813408022120213430B6000F063FA10BD00010B40FF3FFFFF70B5050000F056FA3F
:400800000400FFF7C9FF002803D0FFF7DDFF012100E0002108482840084A1568084B2B40184310601368012901D1FFF7BFFF200000F040FA70BDC0460404040010020B40E5
:40084000FBFBFBFF10B5244B1B685B0715D5234B1B685B070ED5224BD969042001401F4C22688A432260DA698243DA611B69002B00D098470420FFF7BFFF174B1B685B0539
:4008800018D5164B1B685B0510D5154BD9698022D2001140114802688A430260D969114A0A40DA615B69002B00D098478020C000FFF7A2FF084B1B685B030CD5074B1B6828
:4008C0005B0304D5064B9B69002B00D098478020C002FFF791FF10BD10020B40DC00002078010020FFFBFFFF10B50B4C226860239A4322602268513B9A4322602268102339
:400900000343D8B2104320600120FFF789FE236810229343236010BD0002044070B505000E4C226820231343236023684022934323600020FFF774FE23680F229343236040
:40094000226810232B43D8B2104320600120FFF767FE236810229343236070BD00020440F8B5274A13687F218B43136025490B681B0B1B03244803430B60136820218B43A4
:400980001360116840230B431360CA277F000020FFF746FE1A4C23681026334323600120FFF73EFE194B1D682368B34323600020FFF736FE08231D40236833432360012086
:4009C000FFF72EFE2368B3432360002D02D10A20FFF726FE013F002D01D0002FD7D1084B1A6840218A431A601A683F318A431A60044A13681B0B1B0305490B431360F8BDF1
:400A000000020440080204404902000004020440B60D000010B50400FFF7A2FF2009FFF77DFF0F202040FFF779FF10BD70B505000078012404E0FFF7EDFF285D0134E4B228
:400A40000028F8D170BDC04610B50400FFF788FF2009FFF749FF0F202040FFF745FF10BD10B52820FFF7C4FD0320FFF73DFF0520FFF7BEFD0320FFF737FF0F20FFF7B8FDF7
:400A80000320FFF731FF0120FFF7B2FD0220FFF72BFF0520FFF7ACFD0620FFF7D5FF0E20FFF7D2FF2C20FFF7CFFF0820FFF7CCFF0120FFF7C9FF0C20FFF7C6FF0320FFF764
:400AC000C3FF0520FFF794FD10BDC04610B501280BD0002804D002280CD003280FD012E08039C8B2FFF7B0FF0DE04039C8B2FFF7ABFF08E06C39C8B2FFF7A6FF03E02C39AC
:400B0000C8B2FFF7A1FF10BD014B98647047C0460000002010B5040000F0C8F8044A1168044B0B40A4051C43146000F0C3F810BD00E400E0FFFF3FFF0422014B1A60704742
:400B400000E100E00422014B1A60704780E100E010B50400FFF7F6FF2000FFF7D5FF0320FFF7D8FFFFF7E8FF10BDC046034A117880235B420B43DBB21370704772000F40A6
:400B8000024A11787F230B401370704772000F40014B18707047C04683000F40014B1878C0B2704763000F40014B18807047C04644100F40014B188880B2704784100F4062
:400BC000014B18807047C04604100F4010B501E0FFF7F0FFFFF7E2FF0307F9D410BDC04610B50B4C2000FFF7DFFF2000FFF7E8FF00F05CF8074A117810230B43DBB2137029
:400C000000F058F8FFF7E2FF0020FFF7C1FF10BDFFF9000093000F4010B5064B1B78002B04D1FFF7DDFF0122024B1A70FFF79EFF10BDC04698010020014BD8647047C04647
:400C40000000002010B5040000F030F8044A13689B009B08A4071C43146000F02BF810BD00E400E00822014B1A60704700E100E00822014B1A60704780E100E010B5040031
:400C8000FFF7F6FF2000FFF7D7FF0320FFF7DAFFFFF7E8FF10BDC0460230800804D0C0460138FDD1C046C046C0467047EFF3108072B6704780F310887047C0469E2110B5BA
:400CC000C905041C00F0BCFC002803D1201C00F01DFC10BD9E21201CC90500F091FA00F015FC80231B069C466044F2E7F8B54A02430244004E00C50F240E28009B09360E02
:400D0000C90F92098D4259D0A01B002800DC8DE0002E1AD1002A00D079E05A0704D00F221A40042A00D004335A0138D50134FF2C00D189E028009B015B0AE4B25B02E405B4
:400D40005B0A2343C0071843F8BDFF2CE5D08021C9040A431B2800DD89E016002021C640081A8240511E8A4132439B1A5A0114D59B019E09300000F06DFC0538864084422F
:400D800065DC041B330020200134E340041BA640721E964100243343BFE75A07BFD1DF082800FF2C2FD1002F00D187E08022D20313003B435B025B0AFF24BFE7A11B002952
:400DC00049DD002E29D0FF2CA7D08026F60432431B2900DD8DE017002026CF40711A8A40511E8A413A439B185A01D6D50134FF2C64D0012276491A405B080B4013438CE7E9
:400E0000031ECAD100207B025B0AE4B296E701380028AAD0FF2C9DD17FE7002A00D17CE701390029DFD0FF2CD2D176E7002820D1601CC0B2012853DD80279E1AFF04374033
:400E40002FD0D61A0D0095E72800002376E7614B241A334061E700294DD1611CCEB2012E2FDDFF292AD09B185B080C0055E701227BE7002C1BD1002B5BD0C04300280CD0B4
:400E8000FF2E7ED01B2800DD92E01D002024C540201A8340581E83412B43D31A34000D0064E7002E00D065E700200024ABE7FF2E67D08024E40440422343E3E7FF24002399
:400EC0003CE7002C61D1002B7ED0002A00D124E79B185A0100D460E73E4A0C0013401CE7002C1ED1002B2FD1002A66D013000D0013E7012277E7002C1FD1002B5AD0C94321
:400F000000290BD0FF2E50D01B295FDC1F002024CF40611A8B40591E8B413B439B18340062E7002B1CD1002A4AD013000D00FF24F3E6130034000D00EFE6FF2E35D08024C1
:400F4000E40449422343DFE7002A00D1E5E68027981AFF04074000D152E7D31A0D00DCE6FF24002A00D1D8E68020DB08C003034204D0D208024201D113000D00DB00FF245A
:400F8000CBE61300FF240D00C7E6002B0DD0FF24002A00D1C1E68021DB08C9030B42EDD0D2080A42EAD11300E8E71300FF24B4E6012372E713003400AFE60027002022E72D
:400FC00080270020FF03F1E61300A6E60123A5E7FFFFFF7DFFFFFFFBF0B557464E4645464300E0B446028846760A1F0EC40F002F47D0FF2F25D0002380259A469946F600DC
:40100000ED042E437F3F434642465D02D20F5B006D0A1B0E904640D0FF2B39D080220020ED00D20415437F3BFB1842465746591C62408C4607430F2F5CD86F49BF00C9591E
:401040008F46002E45D108239A46063B9946DAE7424602282DD0032800D1C3E0012800D0A2E0002500260240D4B27602ED05760A2E43E407264330001CBC90469946A2463B
:40108000F0BD002E1AD104239A46033B9946BAE72A00511E8A41901CC6E70120002DC3D0280000F0D7FA431F76309D4043420020BAE70124FF2514400026D6E7300000F053
:4010C000C9FA431F9E400023763047429A46994699E70C239A46093B994694E780260024F603FF25C1E735004846B2E7350022004846AEE72904090C0800370C3604360C41
:401100002C0C7943704367437443060C64183619B14203D980214902884647440004000C310409188D01681E8541890E2943350CED19AD010D43290104D5012369081D4039
:4011400063460D4319007F31002925DD680704D00F202840042800D00435280103D5274980330D401900FE29A3DC0124AD016E0A1440CDB279E78020C003064207D00542FC
:4011800005D128434602760A4446FF256DE706437602760AFF2568E70124611A1B2905DD14400025002660E76346CBE72E002023CE40591A8D406B1E9D412E43730704D084
:4011C0000F233340042B00D00436730104D5012401251440002648E70124B601760A1440002542E780260124F6032E437602760A1440FF2539E7C046701A0000FFFFFFF789
:40120000F8B54A024E0043024400240EC50F9B09360EC90F9209FF2E00D183E001204140A01BA9425CD0002800DC95E0002E1CD1002A00D081E05A0704D00F221A40042ACB
:4012400000D004335A013BD50134FF2C00D191E001209B015B0AE4B205405B02E4055B0AED0723432B431800F8BDFF2CE3D08021C9040A431B2800DD90E016002021C64097
:40128000081A8240511E8A4132439B1A5A0115D59B019E09300000F0DDF90538864084426CDC041B330020200134E340041BA640721E964100243343BDE70D005A07BCD1C8
:4012C000DF0801231D40FF2C33D1002F00D190E08022D20313003B435B025B0AFF24BCE700284FDD002E2ED0FF2CA4D08025ED042A431B2800DD97E016002025C640281AFB
:401300008240501E824132439B185A01D5D50134FF2C6DD001227B481A405B08034013430D0088E7002A00D07AE777E7031EC5D100257B025B0AE4B28FE701380028A4D0E0
:40134000FF2C97D177E7002A00D174E701380028DAD0FF2CCDD16EE7002821D1601CC0B2012858DD80279E1AFF0437402FD0D61A0D008FE701231D4000236EE7624B241A68
:40138000334058E7002851D1601CC6B2012E33DDFF282DD09B185B0804004CE7012274E7002C1AD0FF2E1FD08024E404404223431B2800DD96E01D002024C540201A834070
:4013C000581E83412B43D31A34000D005EE7002E00D05FE700250024ABE7002B44D0C0430028F0D0FF2EE3D11300FF240D0022E70D00FF24002330E7002C5DD1002B7DD020
:40140000002A00D117E79B185A0100D456E73E4A040013400FE7002C1ED1002B2FD1002A65D013000D0006E701226DE7002C1FD1002B59D0C04300280BD0FF2E4FD01B2891
:401440005EDC1D002024C540201A8340581E83412B439B18340058E7002B1CD1002A49D013000D00FF24E6E6130034000D00E2E6FF2E34D08024E40440422343DFE7002AE6
:4014800000D1D8E68027981AFF04074000D14DE7D31A0D00CFE6FF24002A00D1CBE68020DB08C003034204D0D208024201D113000D00DB00FF24BEE6002B10D0FF24002A0E
:4014C00000D1B8E68020DB08C003034203D0D208024200D11300DB000D00FF24ABE61300FF24A8E601236EE713003400A3E6002700251EE780270025FF03E9E613009AE6F3
:401500000123A6E7FFFFFF7DFFFFFFFB4302590A4300C20F1B0E00207E2B0EDD9D2B0DDC802000040143952B0BDC9620C31AD9400B005842002A00D118007047034BD0185E
:40154000FBE7963B99400B00F3E7C046FFFFFF7F70B5002830D0C317C5185D40C40F280000F078F89E231B1A962B0DDC9622D21A95406A02520AD8B25202C005520AE407B1
:4015800002432243100070BD992B19DC9922D21A9540124A2A40690704D00F210D40042D00D00432510103D50C4B1A409F231B1A9201520AD8B2DFE7002400200022DBE718
:4015C00005222E00121AB921D6402A00C91A8A40551EAA4135001543DBE7C046FFFFFFFB8446081C6146FFE71FB500F0BDF8002801D40021C8421FBD10B500F049F8404288
:40160000013010BD10B500F0AFF8002801DB002010BD012010BDC04610B500F0A5F8002801DD002010BD012010BDC04610B500F057F8002801DC002010BD012010BDC04648
:4016400010B500F04DF8002801DA002010BD012010BDC0461C2101231B04984201D3000C10391B0A984201D3000A08391B09984201D30009043902A2105C40187047C046AE
:4016800004030202010101010000000000000000430270B542004C005D0AC30F4802120E460A240EC90FFF2A0FD0FF2C11D00120A24200D070BDB542FCD18B420DD0002A78
:4016C000F8D12800431E9841F4E70120002DF1D1EBE70120002EEDD1E9E70020EAE7C0464302F0B542005D0AC30F4802440A4800120E000EC90FFF2A1FD0FF2822D0002A88
:4017000009D16E426E4100280FD1002C0DD10020002D09D005E0002801D1002C01D08B4213D0584201231843F0BD002EF7D048424141012049420843F6E7002DDDD0022015
:401740004042F1E7002CDAD0F9E78242E9DC04DBA542E6D80020A542E6D25842434101205B421843E0E7C0464302F0B542004C005E0AC30F4802120E450A240EC90FFF2AEB
:4017800017D0FF2C19D0002A0BD170427041002C17D0002807D048424141012049420843F0BD002C13D08B4214D0584201231843F6E70220002EF3D1E3E70220002DEFD160
:4017C000E1E7002DE5D10020002EE9D0EDE7002DE9D1EAE7A242E8DC04DBAE42E5D80020AE42DDD25842434101205B421843D7E7014B18687047C046400100200E4B70B55B
:4018000000251E000D4CE41AA410A54204D0AB00F35898470135F8E700F04CF9084B00251E00084CE41AA410A54204D0AB00F35898470135F8E770BDC01A0000C01A00005E
:40184000C01A0000C81A000003008218934202D019700133FAE770470000000080A7CBE7F9FFF9E7CBA7805935190701071935595374617274000000202020202000000065
:40188000526973696E6720657870000000300F40000400400F400004810D830D405149FF4AFF4BFF4F01501856085A045B045D995F016040624064406540668068806A8043
:4018C0006C806E8082019E01B001B601BE01C041C5ECC602C807C9FFCAFFCBFFCD83CE03CF01D018D280D401D804DA04DB04DC09DD99DF01E040E240E440E540E680E880F4
:40190000EA80EC80EE8006400D801E801F8041804580464048014D044F015580584059105D045E805F01600862A074017640C010C280D098D208D6DCD80C404549FF4AFF53
:401940004BFF4F01501852805A0A5B0B5D995F016040624064406540668068806A806C806E8083019F01B501B701B908BF44C014C5ECC720C823C9FFCAFFCBFFCD83CE032D
:40198000CF01D018D401D90ADA0ADB0ADC90DD99DF01E040E240E440E540E680E880EA80EC80EE80224023283340390241014340468049054E025101520259055A80768037
:4019C000774078087EA087289808A2A0AF80B040B510CC08CE01D089D210D60BDEC2E002E8C01B806B406C806F20C640DA80DC60034084809F40A480AF20B380B780C01084
:401A0000E210EE107420DC02561084208610A420D40202011101000002000F4035300F401A310F4035320F401F330F4007400F400A410F4002420F4005430F4002600F40F4
:401A4000030405060708090A0B0C0E0F101112131415161718191B1C1D1E1F2021222325262728292A2B2E2F3031323334350000F41000005210000052100000501000004E
:401A8000E6100000E6100000DC10000050100000E6100000DC100000E610000050100000EC100000EC100000EC1000007611000043000000F8B5C046F8BC08BC9E46704732
:401AC0009501000095030000F8B5C046F8BC08BC9E4670476D010000E81A0000C00000208800000058000000000000008BFD7F3F010000000000E02EC05D00001800000038
:401B000000366E01040404000000000000000000000000000000000000000000000000000000000000000000B01A000000000000000000000000000000000000000000002A
:401B400000000000000000000000000000000000000000000000000000000000000000000000000000000000E0000020000000000000000000000000000000000000000065
:401B80000000000000000000000000000000000000000000000000000000000000000000000000000000000000000000000000000000000000000000000000000000000025
:401BC00000000000000000000000000000000000000000000000000000000000000000000000000000000000000000000000000000000000000000000000000000000000E5
:401C000000000000000000000000000000000000000000000000000000000000000000000000000000000000000000000000000000000000000000000000000000000000A4
:401C40000000000000000000000000000000000000000000000000000000000000000000000000000000000000000000000000000000000000000000000000000000000064
:0200000490303A
:02000000C62810
:0200000490402A
:200000000000000000000000000000000000000000000000000000000000000000000000E0
:0200000490501A
:0C000000000204C81193110104D1D7BB09
:0200000490600A
:0100000001FE
:00000001FF